{
  "contractName": "Rentals",
  "abi": [
    {
      "inputs": [],
      "stateMutability": "nonpayable",
      "type": "constructor"
    },
    {
      "anonymous": false,
      "inputs": [
        {
          "indexed": true,
          "internalType": "uint256",
          "name": "property",
          "type": "uint256"
        },
        {
          "indexed": true,
          "internalType": "uint256",
          "name": "rentAmount",
          "type": "uint256"
        }
      ],
      "name": "LogPropertyAdded",
      "type": "event"
    },
    {
      "anonymous": false,
      "inputs": [
        {
          "indexed": true,
          "internalType": "uint256",
          "name": "property",
          "type": "uint256"
        },
        {
          "indexed": true,
          "internalType": "address",
          "name": "tenant",
          "type": "address"
        }
      ],
      "name": "LogTenantAdded",
      "type": "event"
    },
    {
      "anonymous": false,
      "inputs": [
        {
          "indexed": true,
          "internalType": "uint256",
          "name": "i",
          "type": "uint256"
        },
        {
          "indexed": true,
          "internalType": "uint256",
          "name": "idListLength",
          "type": "uint256"
        }
      ],
      "name": "LogUints",
      "type": "event"
    },
    {
      "anonymous": false,
      "inputs": [
        {
          "indexed": true,
          "internalType": "address",
          "name": "previousOwner",
          "type": "address"
        },
        {
          "indexed": true,
          "internalType": "address",
          "name": "newOwner",
          "type": "address"
        }
      ],
      "name": "OwnershipTransferred",
      "type": "event"
    },
    {
      "inputs": [
        {
          "internalType": "uint256",
          "name": "",
          "type": "uint256"
        }
      ],
      "name": "idList",
      "outputs": [
        {
          "internalType": "uint256",
          "name": "",
          "type": "uint256"
        }
      ],
      "stateMutability": "view",
      "type": "function",
      "constant": true
    },
    {
      "inputs": [],
      "name": "idListLength",
      "outputs": [
        {
          "internalType": "uint256",
          "name": "",
          "type": "uint256"
        }
      ],
      "stateMutability": "view",
      "type": "function",
      "constant": true
    },
    {
      "inputs": [],
      "name": "owner",
      "outputs": [
        {
          "internalType": "address",
          "name": "",
          "type": "address"
        }
      ],
      "stateMutability": "view",
      "type": "function",
      "constant": true
    },
    {
      "inputs": [
        {
          "internalType": "uint256",
          "name": "",
          "type": "uint256"
        }
      ],
      "name": "properties",
      "outputs": [
        {
          "internalType": "uint256",
          "name": "propertyId",
          "type": "uint256"
        },
        {
          "internalType": "uint256",
          "name": "currentRentAmount",
          "type": "uint256"
        },
        {
          "internalType": "enum Rentals.State",
          "name": "status",
          "type": "uint8"
        },
        {
          "internalType": "address payable",
          "name": "tenant",
          "type": "address"
        },
        {
          "internalType": "string",
          "name": "location",
          "type": "string"
        },
        {
          "internalType": "string",
          "name": "description",
          "type": "string"
        },
        {
          "internalType": "string",
          "name": "infoUrl",
          "type": "string"
        },
        {
          "internalType": "string",
          "name": "imgUrl",
          "type": "string"
        },
        {
          "components": [
            {
              "internalType": "uint256",
              "name": "timestamp",
              "type": "uint256"
            },
            {
              "internalType": "uint256",
              "name": "amount",
              "type": "uint256"
            },
            {
              "internalType": "address",
              "name": "from",
              "type": "address"
            },
            {
              "internalType": "enum Rentals.PaymentState",
              "name": "paymentStatus",
              "type": "uint8"
            }
          ],
          "internalType": "struct Rentals.Payment",
          "name": "latestTenantPayment",
          "type": "tuple"
        },
        {
          "internalType": "uint256",
          "name": "paymentPeriodSec",
          "type": "uint256"
        }
      ],
      "stateMutability": "view",
      "type": "function",
      "constant": true
    },
    {
      "inputs": [],
      "name": "renounceOwnership",
      "outputs": [],
      "stateMutability": "nonpayable",
      "type": "function"
    },
    {
      "inputs": [
        {
          "internalType": "address",
          "name": "newOwner",
          "type": "address"
        }
      ],
      "name": "transferOwnership",
      "outputs": [],
      "stateMutability": "nonpayable",
      "type": "function"
    },
    {
      "inputs": [
        {
          "internalType": "uint256",
          "name": "_propertyId",
          "type": "uint256"
        }
      ],
      "name": "addAsTenant",
      "outputs": [],
      "stateMutability": "payable",
      "type": "function",
      "payable": true
    },
    {
      "inputs": [
        {
          "internalType": "uint256",
          "name": "rentAmount",
          "type": "uint256"
        },
        {
          "internalType": "string",
          "name": "_location",
          "type": "string"
        },
        {
          "internalType": "string",
          "name": "_description",
          "type": "string"
        },
        {
          "internalType": "string",
          "name": "_infoUrl",
          "type": "string"
        },
        {
          "internalType": "string",
          "name": "_imgUrl",
          "type": "string"
        }
      ],
      "name": "addProperty",
      "outputs": [],
      "stateMutability": "nonpayable",
      "type": "function"
    },
    {
      "inputs": [],
      "name": "checkPayments",
      "outputs": [],
      "stateMutability": "nonpayable",
      "type": "function"
    },
    {
      "inputs": [],
      "name": "withdraw",
      "outputs": [],
      "stateMutability": "nonpayable",
      "type": "function"
    }
  ],
  "bytecode": "0x6080604052600060015534801561001557600080fd5b5061003261002761003760201b60201c565b61003f60201b60201c565b610103565b600033905090565b60008060009054906101000a900473ffffffffffffffffffffffffffffffffffffffff169050816000806101000a81548173ffffffffffffffffffffffffffffffffffffffff021916908373ffffffffffffffffffffffffffffffffffffffff1602179055508173ffffffffffffffffffffffffffffffffffffffff168173ffffffffffffffffffffffffffffffffffffffff167f8be0079c531659141344cd1fd0a4f28419497f9722a3daafe3b4186f6b6457e060405160405180910390a35050565b6122ef80620001136000396000f3fe6080604052600436106100915760003560e01c80638da5cb5b116100595780638da5cb5b14610143578063d3578f981461016e578063e59b242c1461018a578063f2fde38b146101b3578063f7b10808146101dc57610091565b80633ccfd60b146100965780636313531f146100ad5780636386cd17146100ea578063715018a6146101155780637f9cbfc11461012c575b600080fd5b3480156100a257600080fd5b506100ab610222565b005b3480156100b957600080fd5b506100d460048036038101906100cf9190611935565b6102a0565b6040516100e19190611da2565b60405180910390f35b3480156100f657600080fd5b506100ff6102c4565b60405161010c9190611da2565b60405180910390f35b34801561012157600080fd5b5061012a6102ca565b005b34801561013857600080fd5b50610141610352565b005b34801561014f57600080fd5b50610158610801565b6040516101659190611ce7565b60405180910390f35b61018860048036038101906101839190611935565b61082a565b005b34801561019657600080fd5b506101b160048036038101906101ac919061195e565b610ca1565b005b3480156101bf57600080fd5b506101da60048036038101906101d5919061190c565b6110bb565b005b3480156101e857600080fd5b5061020360048036038101906101fe9190611935565b6111b3565b6040516102199a99989796959493929190611dbd565b60405180910390f35b61022a61154f565b73ffffffffffffffffffffffffffffffffffffffff16610248610801565b73ffffffffffffffffffffffffffffffffffffffff161461029e576040517f08c379a000000000000000000000000000000000000000000000000000000000815260040161029590611d62565b60405180910390fd5b565b600281815481106102b057600080fd5b906000526020600020016000915090505481565b60035481565b6102d261154f565b73ffffffffffffffffffffffffffffffffffffffff166102f0610801565b73ffffffffffffffffffffffffffffffffffffffff1614610346576040517f08c379a000000000000000000000000000000000000000000000000000000000815260040161033d90611d62565b60405180910390fd5b6103506000611557565b565b60005b6002805490508110156107fe57600060046000600284815481106103a2577f4e487b7100000000000000000000000000000000000000000000000000000000600052603260045260246000fd5b9060005260206000200154815260200190815260200160002060070160000154426103cd9190611fde565b90506000600460006002858154811061040f577f4e487b7100000000000000000000000000000000000000000000000000000000600052603260045260246000fd5b90600052602060002001548152602001908152602001600020600a01549050600280549050837fcce16797734f773eb76b149844ff0bb962af26a903a981853154daefd92d693a60405160405180910390a3600073ffffffffffffffffffffffffffffffffffffffff1660046000600286815481106104b7577f4e487b7100000000000000000000000000000000000000000000000000000000600052603260045260246000fd5b9060005260206000200154815260200190815260200160002060070160020160009054906101000a900473ffffffffffffffffffffffffffffffffffffffff1673ffffffffffffffffffffffffffffffffffffffff16146107e8578082111561056e5761056760028481548110610557577f4e487b7100000000000000000000000000000000000000000000000000000000600052603260045260246000fd5b906000526020600020015461161b565b50506107eb565b6064605a8261057d9190611f84565b6105879190611f53565b82111561064157600360046000600286815481106105ce577f4e487b7100000000000000000000000000000000000000000000000000000000600052603260045260246000fd5b9060005260206000200154815260200190815260200160002060070160020160146101000a81548160ff02191690836004811115610635577f4e487b7100000000000000000000000000000000000000000000000000000000600052602160045260246000fd5b021790555050506107eb565b60646046826106509190611f84565b61065a9190611f53565b82111561071457600260046000600286815481106106a1577f4e487b7100000000000000000000000000000000000000000000000000000000600052603260045260246000fd5b9060005260206000200154815260200190815260200160002060070160020160146101000a81548160ff02191690836004811115610708577f4e487b7100000000000000000000000000000000000000000000000000000000600052602160045260246000fd5b021790555050506107eb565b60646028826107239190611f84565b61072d9190611f53565b8211156107e75760016004600060028681548110610774577f4e487b7100000000000000000000000000000000000000000000000000000000600052603260045260246000fd5b9060005260206000200154815260200190815260200160002060070160020160146101000a81548160ff021916908360048111156107db577f4e487b7100000000000000000000000000000000000000000000000000000000600052602160045260246000fd5b021790555050506107eb565b5b50505b80806107f69061211e565b915050610355565b50565b60008060009054906101000a900473ffffffffffffffffffffffffffffffffffffffff16905090565b8060006002811115610865577f4e487b7100000000000000000000000000000000000000000000000000000000600052602160045260246000fd5b6004600083815260200190815260200160002060020160009054906101000a900460ff1660028111156108c1577f4e487b7100000000000000000000000000000000000000000000000000000000600052602160045260246000fd5b1480156109305750600073ffffffffffffffffffffffffffffffffffffffff166004600083815260200190815260200160002060020160019054906101000a900473ffffffffffffffffffffffffffffffffffffffff1673ffffffffffffffffffffffffffffffffffffffff16145b61096f576040517f08c379a000000000000000000000000000000000000000000000000000000000815260040161096690611d82565b60405180910390fd5b81346004600083815260200190815260200160002060010154146109c8576040517f08c379a00000000000000000000000000000000000000000000000000000000081526004016109bf90611d02565b60405180910390fd5b6000600460008581526020019081526020016000209050338160020160016101000a81548173ffffffffffffffffffffffffffffffffffffffff021916908373ffffffffffffffffffffffffffffffffffffffff16021790555060405180608001604052804281526020013481526020013373ffffffffffffffffffffffffffffffffffffffff16815260200160006004811115610a8f577f4e487b7100000000000000000000000000000000000000000000000000000000600052602160045260246000fd5b81525081600701600082015181600001556020820151816001015560408201518160020160006101000a81548173ffffffffffffffffffffffffffffffffffffffff021916908373ffffffffffffffffffffffffffffffffffffffff16021790555060608201518160020160146101000a81548160ff02191690836004811115610b42577f4e487b7100000000000000000000000000000000000000000000000000000000600052602160045260246000fd5b021790555090505060018160020160006101000a81548160ff02191690836002811115610b98577f4e487b7100000000000000000000000000000000000000000000000000000000600052602160045260246000fd5b02179055506000610ba7610801565b905060008173ffffffffffffffffffffffffffffffffffffffff1634604051610bcf90611cd2565b60006040518083038185875af1925050503d8060008114610c0c576040519150601f19603f3d011682016040523d82523d6000602084013e610c11565b606091505b5050905080610c55576040517f08c379a0000000000000000000000000000000000000000000000000000000008152600401610c4c90611d22565b60405180910390fd5b3373ffffffffffffffffffffffffffffffffffffffff16867f6d08645a1138b608810c5ba9caaafcca0a45fe788c9e1944036488f27a5d7cdf60405160405180910390a3505050505050565b610ca961154f565b73ffffffffffffffffffffffffffffffffffffffff16610cc7610801565b73ffffffffffffffffffffffffffffffffffffffff1614610d1d576040517f08c379a0000000000000000000000000000000000000000000000000000000008152600401610d1490611d62565b60405180910390fd5b600060018054610d2d9190611efd565b9050600060405180610140016040528083815260200188815260200160006002811115610d83577f4e487b7100000000000000000000000000000000000000000000000000000000600052602160045260246000fd5b8152602001600073ffffffffffffffffffffffffffffffffffffffff168152602001878152602001868152602001858152602001848152602001604051806080016040528042815260200160008152602001600073ffffffffffffffffffffffffffffffffffffffff16815260200160006004811115610e2c577f4e487b7100000000000000000000000000000000000000000000000000000000600052602160045260246000fd5b81525081526020016107088152509050816001819055506002829080600181540180825580915050600190039060005260206000200160009091909190915055600280549050600381905550806004600083600001518152602001908152602001600020600082015181600001556020820151816001015560408201518160020160006101000a81548160ff02191690836002811115610ef5577f4e487b7100000000000000000000000000000000000000000000000000000000600052602160045260246000fd5b021790555060608201518160020160016101000a81548173ffffffffffffffffffffffffffffffffffffffff021916908373ffffffffffffffffffffffffffffffffffffffff1602179055506080820151816003019080519060200190610f5d9291906117d7565b5060a0820151816004019080519060200190610f7a9291906117d7565b5060c0820151816005019080519060200190610f979291906117d7565b5060e0820151816006019080519060200190610fb49291906117d7565b5061010082015181600701600082015181600001556020820151816001015560408201518160020160006101000a81548173ffffffffffffffffffffffffffffffffffffffff021916908373ffffffffffffffffffffffffffffffffffffffff16021790555060608201518160020160146101000a81548160ff0219169083600481111561106b577f4e487b7100000000000000000000000000000000000000000000000000000000600052602160045260246000fd5b0217905550505061012082015181600a01559050508681600001517fd6c64986ac82ae5db393ba396404534c8743eb73dd99a83e574c46137d38c4b060405160405180910390a350505050505050565b6110c361154f565b73ffffffffffffffffffffffffffffffffffffffff166110e1610801565b73ffffffffffffffffffffffffffffffffffffffff1614611137576040517f08c379a000000000000000000000000000000000000000000000000000000000815260040161112e90611d62565b60405180910390fd5b600073ffffffffffffffffffffffffffffffffffffffff168173ffffffffffffffffffffffffffffffffffffffff1614156111a7576040517f08c379a000000000000000000000000000000000000000000000000000000000815260040161119e90611d42565b60405180910390fd5b6111b081611557565b50565b60046020528060005260406000206000915090508060000154908060010154908060020160009054906101000a900460ff16908060020160019054906101000a900473ffffffffffffffffffffffffffffffffffffffff169080600301805461121b906120ec565b80601f0160208091040260200160405190810160405280929190818152602001828054611247906120ec565b80156112945780601f1061126957610100808354040283529160200191611294565b820191906000526020600020905b81548152906001019060200180831161127757829003601f168201915b5050505050908060040180546112a9906120ec565b80601f01602080910402602001604051908101604052809291908181526020018280546112d5906120ec565b80156113225780601f106112f757610100808354040283529160200191611322565b820191906000526020600020905b81548152906001019060200180831161130557829003601f168201915b505050505090806005018054611337906120ec565b80601f0160208091040260200160405190810160405280929190818152602001828054611363906120ec565b80156113b05780601f10611385576101008083540402835291602001916113b0565b820191906000526020600020905b81548152906001019060200180831161139357829003601f168201915b5050505050908060060180546113c5906120ec565b80601f01602080910402602001604051908101604052809291908181526020018280546113f1906120ec565b801561143e5780601f106114135761010080835404028352916020019161143e565b820191906000526020600020905b81548152906001019060200180831161142157829003601f168201915b5050505050908060070160405180608001604052908160008201548152602001600182015481526020016002820160009054906101000a900473ffffffffffffffffffffffffffffffffffffffff1673ffffffffffffffffffffffffffffffffffffffff1673ffffffffffffffffffffffffffffffffffffffff1681526020016002820160149054906101000a900460ff166004811115611508577f4e487b7100000000000000000000000000000000000000000000000000000000600052602160045260246000fd5b6004811115611540577f4e487b7100000000000000000000000000000000000000000000000000000000600052602160045260246000fd5b815250509080600a015490508a565b600033905090565b60008060009054906101000a900473ffffffffffffffffffffffffffffffffffffffff169050816000806101000a81548173ffffffffffffffffffffffffffffffffffffffff021916908373ffffffffffffffffffffffffffffffffffffffff1602179055508173ffffffffffffffffffffffffffffffffffffffff168173ffffffffffffffffffffffffffffffffffffffff167f8be0079c531659141344cd1fd0a4f28419497f9722a3daafe3b4186f6b6457e060405160405180910390a35050565b42600460008381526020019081526020016000206007016000018190555060006004600083815260200190815260200160002060070160020160006101000a81548173ffffffffffffffffffffffffffffffffffffffff021916908373ffffffffffffffffffffffffffffffffffffffff1602179055506000600460008381526020019081526020016000206007016001018190555060006004600083815260200190815260200160002060070160020160146101000a81548160ff02191690836004811115611714577f4e487b7100000000000000000000000000000000000000000000000000000000600052602160045260246000fd5b021790555060006004600083815260200190815260200160002060020160006101000a81548160ff02191690836002811115611779577f4e487b7100000000000000000000000000000000000000000000000000000000600052602160045260246000fd5b021790555060006004600083815260200190815260200160002060020160016101000a81548173ffffffffffffffffffffffffffffffffffffffff021916908373ffffffffffffffffffffffffffffffffffffffff16021790555050565b8280546117e3906120ec565b90600052602060002090601f016020900481019282611805576000855561184c565b82601f1061181e57805160ff191683800117855561184c565b8280016001018555821561184c579182015b8281111561184b578251825591602001919060010190611830565b5b509050611859919061185d565b5090565b5b8082111561187657600081600090555060010161185e565b5090565b600061188d61188884611ea6565b611e75565b9050828152602081018484840111156118a557600080fd5b6118b08482856120aa565b509392505050565b6000813590506118c78161228b565b92915050565b600082601f8301126118de57600080fd5b81356118ee84826020860161187a565b91505092915050565b600081359050611906816122a2565b92915050565b60006020828403121561191e57600080fd5b600061192c848285016118b8565b91505092915050565b60006020828403121561194757600080fd5b6000611955848285016118f7565b91505092915050565b600080600080600060a0868803121561197657600080fd5b6000611984888289016118f7565b955050602086013567ffffffffffffffff8111156119a157600080fd5b6119ad888289016118cd565b945050604086013567ffffffffffffffff8111156119ca57600080fd5b6119d6888289016118cd565b935050606086013567ffffffffffffffff8111156119f357600080fd5b6119ff888289016118cd565b925050608086013567ffffffffffffffff811115611a1c57600080fd5b611a28888289016118cd565b9150509295509295909350565b611a3e81612024565b82525050565b611a4d81612012565b82525050565b611a5c81612012565b82525050565b611a6b81612086565b82525050565b611a7a81612098565b82525050565b6000611a8b82611ed6565b611a958185611eec565b9350611aa58185602086016120b9565b611aae81612252565b840191505092915050565b6000611ac6601d83611eec565b91507f506c65617365207061792065786163742072656e7420616d6f756e742e0000006000830152602082019050919050565b6000611b06602183611eec565b91507f416464696e672074656e616e7420746f2070726f7065727479206661696c656460008301527f2e000000000000000000000000000000000000000000000000000000000000006020830152604082019050919050565b6000611b6c602683611eec565b91507f4f776e61626c653a206e6577206f776e657220697320746865207a65726f206160008301527f64647265737300000000000000000000000000000000000000000000000000006020830152604082019050919050565b6000611bd2602083611eec565b91507f4f776e61626c653a2063616c6c6572206973206e6f7420746865206f776e65726000830152602082019050919050565b6000611c12600083611ee1565b9150600082019050919050565b6000611c2c601c83611eec565b91507f546869732070726f7065727479206973206e6f7420766163616e742e000000006000830152602082019050919050565b608082016000820151611c756000850182611cb4565b506020820151611c886020850182611cb4565b506040820151611c9b6040850182611a44565b506060820151611cae6060850182611a62565b50505050565b611cbd8161207c565b82525050565b611ccc8161207c565b82525050565b6000611cdd82611c05565b9150819050919050565b6000602082019050611cfc6000830184611a53565b92915050565b60006020820190508181036000830152611d1b81611ab9565b9050919050565b60006020820190508181036000830152611d3b81611af9565b9050919050565b60006020820190508181036000830152611d5b81611b5f565b9050919050565b60006020820190508181036000830152611d7b81611bc5565b9050919050565b60006020820190508181036000830152611d9b81611c1f565b9050919050565b6000602082019050611db76000830184611cc3565b92915050565b60006101a082019050611dd3600083018d611cc3565b611de0602083018c611cc3565b611ded604083018b611a71565b611dfa606083018a611a35565b8181036080830152611e0c8189611a80565b905081810360a0830152611e208188611a80565b905081810360c0830152611e348187611a80565b905081810360e0830152611e488186611a80565b9050611e58610100830185611c5f565b611e66610180830184611cc3565b9b9a5050505050505050505050565b6000604051905081810181811067ffffffffffffffff82111715611e9c57611e9b612223565b5b8060405250919050565b600067ffffffffffffffff821115611ec157611ec0612223565b5b601f19601f8301169050602081019050919050565b600081519050919050565b600081905092915050565b600082825260208201905092915050565b6000611f088261207c565b9150611f138361207c565b9250827fffffffffffffffffffffffffffffffffffffffffffffffffffffffffffffffff03821115611f4857611f47612167565b5b828201905092915050565b6000611f5e8261207c565b9150611f698361207c565b925082611f7957611f78612196565b5b828204905092915050565b6000611f8f8261207c565b9150611f9a8361207c565b9250817fffffffffffffffffffffffffffffffffffffffffffffffffffffffffffffffff0483118215151615611fd357611fd2612167565b5b828202905092915050565b6000611fe98261207c565b9150611ff48361207c565b92508282101561200757612006612167565b5b828203905092915050565b600061201d8261205c565b9050919050565b600061202f8261205c565b9050919050565b600081905061204482612263565b919050565b600081905061205782612277565b919050565b600073ffffffffffffffffffffffffffffffffffffffff82169050919050565b6000819050919050565b600061209182612036565b9050919050565b60006120a382612049565b9050919050565b82818337600083830152505050565b60005b838110156120d75780820151818401526020810190506120bc565b838111156120e6576000848401525b50505050565b6000600282049050600182168061210457607f821691505b60208210811415612118576121176121f4565b5b50919050565b60006121298261207c565b91507fffffffffffffffffffffffffffffffffffffffffffffffffffffffffffffffff82141561215c5761215b612167565b5b600182019050919050565b7f4e487b7100000000000000000000000000000000000000000000000000000000600052601160045260246000fd5b7f4e487b7100000000000000000000000000000000000000000000000000000000600052601260045260246000fd5b7f4e487b7100000000000000000000000000000000000000000000000000000000600052602160045260246000fd5b7f4e487b7100000000000000000000000000000000000000000000000000000000600052602260045260246000fd5b7f4e487b7100000000000000000000000000000000000000000000000000000000600052604160045260246000fd5b6000601f19601f8301169050919050565b60058110612274576122736121c5565b5b50565b60038110612288576122876121c5565b5b50565b61229481612012565b811461229f57600080fd5b50565b6122ab8161207c565b81146122b657600080fd5b5056fea26469706673582212209a16e26bf910a4a29682a85cde8f6d00378a1725af2782917e423f6acd42776464736f6c63430008000033",
  "immutableReferences": {},
  "source": "// SPDX-License-Identifier: MIT\npragma solidity 0.8.0;\n\nimport \"@openzeppelin/contracts/access/Ownable.sol\";\n\n/// @title Contract for automated apartment rentals\n/// @author Julius Suominen\n/// @notice Allows a user to obtain tenantship of a listed apartment\n/// @dev Payment tracking will be implemented using a Gelato scheduled task and contract function checkPayments\n/// @dev Timestamps in seconds to match block.timestamp unit\ncontract Rentals is Ownable {\n\n  /// @notice Emitted when a tenant is added to a property\n  /// @param property Property id\n  /// @param tenant Tenant address\n  event LogTenantAdded(uint indexed property, address indexed tenant);\n\n  /// @notice Emitted when a new property is added\n  /// @param property Property id\n  /// @param rentAmount Rent amount\n  event LogPropertyAdded(uint indexed property, uint indexed rentAmount);\n\n  event LogUints(uint indexed i, uint indexed idListLength);\n\n  /// @dev Tracks given property ids. Current value is the newest property id.\n  uint private propertyIdCounter = 0;\n\n  enum State{ Vacant, Rented, NotAvailable }\n  enum PaymentState{ Ok, Warning, Alert, HighAlert, Terminated }\n\n  struct Property {\n    uint propertyId;\n    uint currentRentAmount;\n    State status;\n    address payable tenant;\n    string location;\n    string description;\n    string infoUrl;\n    string imgUrl;\n    Payment latestTenantPayment;\n    uint paymentPeriodSec;\n  }\n\n  struct Payment {\n    uint timestamp;\n    uint amount;\n    address from;\n    PaymentState paymentStatus;\n  }\n\n  /// @notice List of all property ids.\n  /// @dev Used as a helper when iterating available properties.\n  uint[] public idList;\n\n  /// @notice idList length.\n  /// @dev Used as a helper when iterating available properties.\n  uint public idListLength;\n\n  mapping (uint => Property) public properties;\n\n  modifier isVacant(uint id) {\n    require(properties[id].status == State.Vacant && properties[id].tenant == address(0), \"This property is not vacant.\");\n    _;\n  }\n\n  modifier isExactPayment(uint id) {\n    require(properties[id].currentRentAmount == msg.value, \"Please pay exact rent amount.\");\n    _;\n  }\n\n  constructor() {}\n\n  /// @notice Adds a tenant to a given property id\n  /// @param _propertyId Property to which the sender address is added as a tenant\n  /// @dev Check for exact payment sum to avoid having to send ETH back to sender\n  function addAsTenant(uint _propertyId)\n    public\n    payable\n    isVacant(_propertyId)\n    isExactPayment(_propertyId) {\n      Property storage _p = properties[_propertyId];\n      _p.tenant = payable(msg.sender);\n      _p.latestTenantPayment = Payment({ timestamp: block.timestamp, amount: msg.value, from: msg.sender, paymentStatus: PaymentState.Ok });\n      _p.status = State.Rented;\n      address landlord = owner();\n      (bool success, ) = landlord.call{ value: msg.value }(\"\");\n      require(success, \"Adding tenant to property failed.\");\n      emit LogTenantAdded(_propertyId, msg.sender);\n    }\n\n  /// @notice Adds a property listing into contract state\n  /// @param rentAmount Listing monthly rent amount in gwei\n  /// @param _location Geographical listing location as a string, e.g. Grove Street 10, Los Santos\n  /// @param _description Short description of listing\n  /// @param _infoUrl Url to additional information about listing, stored off-chain.\n  /// @param _imgUrl Url to an image of listing to be displayed in the web app.\n  /// @dev HTTP GET to _infoUrl should return an array with information in the following format: { infoId: string, value: string, title: string }[].\n  function addProperty(\n    uint rentAmount,\n    string memory _location,\n    string memory _description,\n    string memory _infoUrl,\n    string memory _imgUrl) public onlyOwner {\n      uint newPropertyId = propertyIdCounter + 1;\n\n      Property memory newProperty = Property({\n        propertyId: newPropertyId,\n        currentRentAmount: rentAmount,\n        status: State.Vacant,\n        tenant: payable(address(0)),\n        location: _location,\n        description: _description,\n        infoUrl: _infoUrl,\n        imgUrl: _imgUrl,\n        latestTenantPayment: Payment({\n          timestamp: block.timestamp,\n          from: address(0),\n          amount: 0,\n          paymentStatus: PaymentState.Ok\n        }),\n        paymentPeriodSec: 30 * 60 // 30 minutes\n      });\n\n      propertyIdCounter = newPropertyId;\n      idList.push(newPropertyId);\n      idListLength = idList.length;\n      properties[newProperty.propertyId] = newProperty;\n      emit LogPropertyAdded(newProperty.propertyId, rentAmount);\n  }\n\n  /// @notice Checks each rented listing for payments\n  /// @dev Called by a Gelato scheduled task\n  function checkPayments() external {\n    for (uint i = 0; i < idList.length; i++) {\n      uint diff = block.timestamp - properties[idList[i]].latestTenantPayment.timestamp;\n      uint limitSec = properties[idList[i]].paymentPeriodSec;\n      emit LogUints(i, idList.length);\n\n      if (properties[idList[i]].latestTenantPayment.from != address(0)) {\n\n        if (diff > limitSec) {\n          removeTenant(idList[i]);\n          continue;\n        }\n      \n        // 90%\n        if (diff > limitSec * 90/100) {\n          properties[idList[i]].latestTenantPayment.paymentStatus = PaymentState.HighAlert;\n          continue;\n        }\n        // 70%\n        if (diff > limitSec * 70/100) {\n          properties[idList[i]].latestTenantPayment.paymentStatus = PaymentState.Alert;\n          continue;\n        }\n        // 40%\n        if (diff > limitSec * 40/100) {\n          properties[idList[i]].latestTenantPayment.paymentStatus = PaymentState.Warning;\n          continue;\n        }\n      }\n    }\n  }\n\n  /// @notice Remove tenant from a listing\n  /// @param _id Listing id\n  function removeTenant(uint _id) private {\n    properties[_id].latestTenantPayment.timestamp = block.timestamp;\n    properties[_id].latestTenantPayment.from = address(0);\n    properties[_id].latestTenantPayment.amount = 0;\n    properties[_id].latestTenantPayment.paymentStatus = PaymentState.Ok;\n    properties[_id].status = State.Vacant;\n    properties[_id].tenant = payable(address(0));\n  }\n\n  /// @notice Remove a listing\n  /// @param _id Listing id\n  /// @dev Only the contract owner can call this\n  function removeProperty(uint _id) private onlyOwner {\n    // TODO: remove a listing entirely\n    // delete properties[_id];\n    // TODO: remove _id from idList\n  }\n\n  /// @notice Withdraw contract funds\n  /// @dev Only the contract owner can call this\n  function withdraw() public onlyOwner {\n    // TODO: withdraw any funds from contract\n  }\n\n}",
  "sourcePath": "/Users/juliussuominen/code/blockchain-bootcamp/blockchain-developer-bootcamp-final-project/contracts/Rentals.sol",
  "compiler": {
    "name": "solc",
    "version": "0.8.0+commit.c7dfd78e.Emscripten.clang"
  },
  "schemaVersion": "3.4.3",
  "updatedAt": "2021-12-22T21:11:35.758Z",
  "networkType": "ethereum",
  "devdoc": {
    "author": "Julius Suominen",
    "details": "Payment tracking will be implemented using a Gelato scheduled task and contract function checkPaymentsTimestamps in seconds to match block.timestamp unit",
    "events": {
      "LogPropertyAdded(uint256,uint256)": {
        "params": {
          "property": "Property id",
          "rentAmount": "Rent amount"
        }
      },
      "LogTenantAdded(uint256,address)": {
        "params": {
          "property": "Property id",
          "tenant": "Tenant address"
        }
      }
    },
    "kind": "dev",
    "methods": {
      "addAsTenant(uint256)": {
        "details": "Check for exact payment sum to avoid having to send ETH back to sender",
        "params": {
          "_propertyId": "Property to which the sender address is added as a tenant"
        }
      },
      "addProperty(uint256,string,string,string,string)": {
        "details": "HTTP GET to _infoUrl should return an array with information in the following format: { infoId: string, value: string, title: string }[].",
        "params": {
          "_description": "Short description of listing",
          "_imgUrl": "Url to an image of listing to be displayed in the web app.",
          "_infoUrl": "Url to additional information about listing, stored off-chain.",
          "_location": "Geographical listing location as a string, e.g. Grove Street 10, Los Santos",
          "rentAmount": "Listing monthly rent amount in gwei"
        }
      },
      "checkPayments()": {
        "details": "Called by a Gelato scheduled task"
      },
      "owner()": {
        "details": "Returns the address of the current owner."
      },
      "renounceOwnership()": {
        "details": "Leaves the contract without owner. It will not be possible to call `onlyOwner` functions anymore. Can only be called by the current owner. NOTE: Renouncing ownership will leave the contract without an owner, thereby removing any functionality that is only available to the owner."
      },
      "transferOwnership(address)": {
        "details": "Transfers ownership of the contract to a new account (`newOwner`). Can only be called by the current owner."
      },
      "withdraw()": {
        "details": "Only the contract owner can call this"
      }
    },
    "stateVariables": {
      "idList": {
        "details": "Used as a helper when iterating available properties."
      },
      "idListLength": {
        "details": "Used as a helper when iterating available properties."
      },
      "propertyIdCounter": {
        "details": "Tracks given property ids. Current value is the newest property id."
      }
    },
    "title": "Contract for automated apartment rentals",
    "version": 1
  },
  "userdoc": {
    "events": {
      "LogPropertyAdded(uint256,uint256)": {
        "notice": "Emitted when a new property is added"
      },
      "LogTenantAdded(uint256,address)": {
        "notice": "Emitted when a tenant is added to a property"
      }
    },
    "kind": "user",
    "methods": {
      "addAsTenant(uint256)": {
        "notice": "Adds a tenant to a given property id"
      },
      "addProperty(uint256,string,string,string,string)": {
        "notice": "Adds a property listing into contract state"
      },
      "checkPayments()": {
        "notice": "Checks each rented listing for payments"
      },
      "idList(uint256)": {
        "notice": "List of all property ids."
      },
      "idListLength()": {
        "notice": "idList length."
      },
      "withdraw()": {
        "notice": "Withdraw contract funds"
      }
    },
    "notice": "Allows a user to obtain tenantship of a listed apartment",
    "version": 1
  }
}